{
  "_format": "hh-sol-artifact-1",
  "contractName": "MockStakingPrecompiledPallet",
  "sourceName": "contracts/StakingPrecompiledPallet.sol",
  "abi": [
    {
      "inputs": [],
      "stateMutability": "nonpayable",
      "type": "constructor"
    },
    {
      "inputs": [
        {
          "internalType": "bytes32",
          "name": "hotkey",
          "type": "bytes32"
        },
        {
          "internalType": "uint16",
          "name": "netuid",
          "type": "uint16"
        }
      ],
      "name": "addStake",
      "outputs": [],
      "stateMutability": "payable",
      "type": "function"
    },
    {
      "inputs": [
        {
          "internalType": "bytes32",
          "name": "coldkey",
          "type": "bytes32"
        },
        {
          "internalType": "bytes32",
          "name": "hotkey",
          "type": "bytes32"
        },
        {
          "internalType": "uint256",
          "name": "netuid",
          "type": "uint256"
        },
        {
          "internalType": "uint256",
          "name": "amount",
          "type": "uint256"
        }
      ],
      "name": "addUserStake",
      "outputs": [],
      "stateMutability": "payable",
      "type": "function"
    },
    {
      "inputs": [
        {
          "internalType": "bytes32",
          "name": "coldkey",
          "type": "bytes32"
        },
        {
          "internalType": "bytes32",
          "name": "hotkey",
          "type": "bytes32"
        },
        {
          "internalType": "uint16",
          "name": "netuid",
          "type": "uint16"
        }
      ],
      "name": "getStake",
      "outputs": [
        {
          "internalType": "uint256",
          "name": "",
          "type": "uint256"
        }
      ],
      "stateMutability": "view",
      "type": "function"
    },
    {
      "inputs": [
        {
          "internalType": "bytes32",
          "name": "hotkey",
          "type": "bytes32"
        },
        {
          "internalType": "uint256",
          "name": "amount",
          "type": "uint256"
        },
        {
          "internalType": "uint16",
          "name": "netuid",
          "type": "uint16"
        }
      ],
      "name": "removeStake",
      "outputs": [],
      "stateMutability": "nonpayable",
      "type": "function"
    },
    {
      "inputs": [
        {
          "internalType": "address",
          "name": "user",
          "type": "address"
        },
        {
          "internalType": "bytes32",
          "name": "hotkey",
          "type": "bytes32"
        }
      ],
      "name": "setMapping",
      "outputs": [],
      "stateMutability": "nonpayable",
      "type": "function"
    },
    {
      "inputs": [
        {
          "internalType": "bytes32",
          "name": "coldkey",
          "type": "bytes32"
        }
      ],
      "name": "totalColdkeyAlpha",
      "outputs": [
        {
          "internalType": "uint256",
          "name": "",
          "type": "uint256"
        }
      ],
      "stateMutability": "view",
      "type": "function"
    },
    {
      "inputs": [
        {
          "internalType": "bytes32",
          "name": "hotkey",
          "type": "bytes32"
        }
      ],
      "name": "totalHotkeyAlpha",
      "outputs": [
        {
          "internalType": "uint256",
          "name": "",
          "type": "uint256"
        }
      ],
      "stateMutability": "view",
      "type": "function"
    },
    {
      "inputs": [],
      "name": "totalNetworks",
      "outputs": [
        {
          "internalType": "uint256",
          "name": "",
          "type": "uint256"
        }
      ],
      "stateMutability": "view",
      "type": "function"
    },
    {
      "stateMutability": "payable",
      "type": "receive"
    }
  ],
  "bytecode": "0x6080806040523461001b57600a60045561064690816100218239f35b600080fdfe60406080815260049081361015610020575b5050361561001e57600080fd5b005b600091823560e01c80630636c28b146102ae578063065fee0f1461028757806311f92757146102605780635b9a41931461022b578063646578e7146101c357806397dd53ba1461018a578063b6b11efd146100a55763c0be7e8b146100855750610011565b346100a157826003193601126100a15760209250549051908152f35b8280fd5b5091908060031936011261018657823560243561ffff8116036100a1573383526020906003825282842054906100dc82151561056b565b81855260058352838520546101688101809111610173576005949596504310801590610162575b61010c906105b7565b8186528583528486208187528352848620610128348254610548565b905585526001825283852061013e348254610548565b905580855260028252838520610155348254610548565b9055845252439082205580f35b508186528383528486205415610103565b634e487b7160e01b865260118752602486fd5b5080fd5b50346100a15760603660031901126100a15760209282916101a9610532565b503581528084528181206024358252845220549051908152f35b5060803660031901126100a1576102269035916024359260643593818652856020528286208187526020528286206101fc868254610548565b905585526001602052818520610213858254610548565b9055845260026020528320918254610548565b905580f35b50346100a157816003193601126100a157356001600160a01b038116908190036100a157825260036020526024359082205580f35b50346100a15760203660031901126100a15760209282913581526001845220549051908152f35b50346100a15760203660031901126100a15760209282913581526002845220549051908152f35b5090346100a15760603660031901126100a157813560249182356102d0610532565b503386526020926003845282872054906102eb82151561056b565b8188526005855283882054610168810180911161052057431080159061050e575b610315906105b7565b81885287855283882081895285528284892054106104d7578088526001855282848920541061049557818852600285528284892054106104535787809383829493839484528389528784208185528952878420610373848254610603565b9055835260018852868320610389838254610603565b9055808352600288528683206103a0838254610603565b90558252600587524386832055335af13d1561044e5767ffffffffffffffff3d81811161043c57835191601f8201601f19908116603f011683019081118382101761042a578452815286843d92013e5b156103f9578480f35b5162461bcd60e51b815292830152600f908201526e151c985b9cd9995c8819985a5b1959608a1b6044820152606490fd5b634e487b7160e01b8952604188528689fd5b634e487b7160e01b8852604187528588fd5b6103f0565b835162461bcd60e51b8152808801869052601a818801527f496e73756666696369656e7420636f6c646b657920616c7068610000000000006044820152606490fd5b835162461bcd60e51b81528088018690526019818801527f496e73756666696369656e7420686f746b657920616c706861000000000000006044820152606490fd5b835162461bcd60e51b815280880186905260128188015271496e73756666696369656e74207374616b6560701b6044820152606490fd5b5081885260058552838820541561030c565b634e487b7160e01b8952601188528689fd5b6044359061ffff8216820361054357565b600080fd5b9190820180921161055557565b634e487b7160e01b600052601160045260246000fd5b1561057257565b60405162461bcd60e51b815260206004820152601c60248201527f4e6f206d617070696e6720666f756e6420666f722061646472657373000000006044820152606490fd5b156105be57565b60405162461bcd60e51b815260206004820152601d60248201527f4d757374207761697420666f7220636f6f6c646f776e20706572696f640000006044820152606490fd5b919082039182116105555756fea2646970667358221220207b69613a2b544f60e11b2d03abccf4bbf4e915c9c11a5bacc627ba7e05888b64736f6c63430008140033",
  "linkReferences": {},
  "deployedLinkReferences": {}
}