{
  "_format": "hh-sol-artifact-1",
  "contractName": "MockStakingPrecompiledPallet",
  "sourceName": "contracts/StakingPrecompiledPallet.sol",
  "abi": [
    {
      "inputs": [],
      "stateMutability": "nonpayable",
      "type": "constructor"
    },
    {
      "inputs": [
        {
          "internalType": "bytes32",
          "name": "hotkey",
          "type": "bytes32"
        }
      ],
      "name": "addStake",
      "outputs": [],
      "stateMutability": "payable",
      "type": "function"
    },
    {
      "inputs": [
        {
          "internalType": "address",
          "name": "user",
          "type": "address"
        },
        {
          "internalType": "bytes32",
          "name": "hotkey",
          "type": "bytes32"
        },
        {
          "internalType": "uint256",
          "name": "netuid",
          "type": "uint256"
        },
        {
          "internalType": "uint256",
          "name": "amount",
          "type": "uint256"
        }
      ],
      "name": "addUserStake",
      "outputs": [],
      "stateMutability": "payable",
      "type": "function"
    },
    {
      "inputs": [
        {
          "internalType": "address",
          "name": "addr",
          "type": "address"
        }
      ],
      "name": "getBytes32",
      "outputs": [
        {
          "internalType": "bytes32",
          "name": "",
          "type": "bytes32"
        }
      ],
      "stateMutability": "view",
      "type": "function"
    },
    {
      "inputs": [
        {
          "internalType": "bytes32",
          "name": "hotkey",
          "type": "bytes32"
        },
        {
          "internalType": "uint256",
          "name": "amount",
          "type": "uint256"
        }
      ],
      "name": "removeStake",
      "outputs": [],
      "stateMutability": "nonpayable",
      "type": "function"
    },
    {
      "inputs": [
        {
          "internalType": "bytes32",
          "name": "coldkey",
          "type": "bytes32"
        }
      ],
      "name": "totalColdkeyAlpha",
      "outputs": [
        {
          "internalType": "uint256",
          "name": "",
          "type": "uint256"
        }
      ],
      "stateMutability": "view",
      "type": "function"
    },
    {
      "inputs": [
        {
          "internalType": "bytes32",
          "name": "hotkey",
          "type": "bytes32"
        }
      ],
      "name": "totalHotkeyAlpha",
      "outputs": [
        {
          "internalType": "uint256",
          "name": "",
          "type": "uint256"
        }
      ],
      "stateMutability": "view",
      "type": "function"
    },
    {
      "inputs": [],
      "name": "totalNetworks",
      "outputs": [
        {
          "internalType": "uint256",
          "name": "",
          "type": "uint256"
        }
      ],
      "stateMutability": "view",
      "type": "function"
    },
    {
      "stateMutability": "payable",
      "type": "receive"
    }
  ],
  "bytecode": "0x6080806040523461001b57600a6003556103e290816100218239f35b600080fdfe6080604081815260049182361015610022575b505050361561002057600080fd5b005b600092833560e01c918263065fee0f146103385750816311f92757146103105781632159bbf61461019357816366da754b1461013d575080639c54c9ec14610110578063b918a8a3146100a05763c0be7e8b1461007f5780610012565b3461009c578160031936011261009c576020906003549051908152f35b5080fd5b50608036600319011261009c5761010b6100b8610361565b916024359260643593808652856020528286206100d686825461037c565b9055855260016020528185206100ed85825461037c565b90556001600160a01b0316845260026020528320805490929061037c565b905580f35b503461009c57602036600319011261009c576020906001600160a01b03610135610361565b169051908152f35b9050602036600319011261018f57358083528260205281832061016134825461037c565b90558252600160205280822061017834825461037c565b90553382526002602052812061010b34825461037c565b8280fd5b90503461018f578160031936011261018f57803590602435918085526020918583528385872054106102d85781865260018352838587205410610295573386526002835283858720541061025257508480936002829484849585528482528885206101ff85825461039f565b905584526001815287842061021584825461039f565b90553384525285822061022982825461039f565b9055818115610249575b3390f11561023f575080f35b51903d90823e3d90fd5b506108fc610233565b845162461bcd60e51b8152908101839052601a60248201527f496e73756666696369656e7420636f6c646b657920616c7068610000000000006044820152606490fd5b845162461bcd60e51b8152908101839052601960248201527f496e73756666696369656e7420686f746b657920616c706861000000000000006044820152606490fd5b845162461bcd60e51b81529081018390526012602482015271496e73756666696369656e74207374616b6560701b6044820152606490fd5b90503461018f57602036600319011261018f5760209282913581526001845220549051908152f35b9291503461035d57602036600319011261035d57926020933581526002845220548152f35b8380fd5b600435906001600160a01b038216820361037757565b600080fd5b9190820180921161038957565b634e487b7160e01b600052601160045260246000fd5b919082039182116103895756fea264697066735822122078bfc77aaf327a7e1329df37b44c4af876439b81c413f5bf8f78131690cd006164736f6c63430008140033",
  "linkReferences": {},
  "deployedLinkReferences": {}
}