{
  "_format": "hh-sol-artifact-1",
  "contractName": "MockStakingPrecompiledPallet",
  "sourceName": "contracts/StakingPrecompiledPallet.sol",
  "abi": [
    {
      "inputs": [],
      "stateMutability": "nonpayable",
      "type": "constructor"
    },
    {
      "inputs": [
        {
          "internalType": "bytes32",
          "name": "hotkey",
          "type": "bytes32"
        },
        {
          "internalType": "uint16",
          "name": "netuid",
          "type": "uint16"
        }
      ],
      "name": "addStake",
      "outputs": [],
      "stateMutability": "payable",
      "type": "function"
    },
    {
      "inputs": [
        {
          "internalType": "address",
          "name": "user",
          "type": "address"
        },
        {
          "internalType": "bytes32",
          "name": "hotkey",
          "type": "bytes32"
        },
        {
          "internalType": "uint256",
          "name": "netuid",
          "type": "uint256"
        },
        {
          "internalType": "uint256",
          "name": "amount",
          "type": "uint256"
        }
      ],
      "name": "addUserStake",
      "outputs": [],
      "stateMutability": "payable",
      "type": "function"
    },
    {
      "inputs": [
        {
          "internalType": "address",
          "name": "addr",
          "type": "address"
        }
      ],
      "name": "getBytes32",
      "outputs": [
        {
          "internalType": "bytes32",
          "name": "",
          "type": "bytes32"
        }
      ],
      "stateMutability": "view",
      "type": "function"
    },
    {
      "inputs": [
        {
          "internalType": "bytes32",
          "name": "coldkey",
          "type": "bytes32"
        },
        {
          "internalType": "bytes32",
          "name": "hotkey",
          "type": "bytes32"
        },
        {
          "internalType": "uint16",
          "name": "netuid",
          "type": "uint16"
        }
      ],
      "name": "getStake",
      "outputs": [
        {
          "internalType": "uint256",
          "name": "",
          "type": "uint256"
        }
      ],
      "stateMutability": "view",
      "type": "function"
    },
    {
      "inputs": [
        {
          "internalType": "bytes32",
          "name": "hotkey",
          "type": "bytes32"
        },
        {
          "internalType": "uint256",
          "name": "amount",
          "type": "uint256"
        },
        {
          "internalType": "uint16",
          "name": "netuid",
          "type": "uint16"
        }
      ],
      "name": "removeStake",
      "outputs": [],
      "stateMutability": "nonpayable",
      "type": "function"
    },
    {
      "inputs": [
        {
          "internalType": "bytes32",
          "name": "coldkey",
          "type": "bytes32"
        }
      ],
      "name": "totalColdkeyAlpha",
      "outputs": [
        {
          "internalType": "uint256",
          "name": "",
          "type": "uint256"
        }
      ],
      "stateMutability": "view",
      "type": "function"
    },
    {
      "inputs": [
        {
          "internalType": "bytes32",
          "name": "hotkey",
          "type": "bytes32"
        }
      ],
      "name": "totalHotkeyAlpha",
      "outputs": [
        {
          "internalType": "uint256",
          "name": "",
          "type": "uint256"
        }
      ],
      "stateMutability": "view",
      "type": "function"
    },
    {
      "inputs": [],
      "name": "totalNetworks",
      "outputs": [
        {
          "internalType": "uint256",
          "name": "",
          "type": "uint256"
        }
      ],
      "stateMutability": "view",
      "type": "function"
    },
    {
      "stateMutability": "payable",
      "type": "receive"
    }
  ],
  "bytecode": "0x6080806040523461001b57600a6003556104ed90816100218239f35b600080fdfe6080604081815260049182361015610022575b505050361561002057600080fd5b005b600092833560e01c9182630636c28b1461024457508163065fee0f1461021c57816311f92757146101f457816397dd53ba146101ba5781639c54c9ec1461018c578163b6b11efd1461012157508063b918a8a3146100ab5763c0be7e8b1461008a5780610012565b346100a757816003193601126100a7576020906003549051908152f35b5080fd5b5060803660031901126100a75761011c6100c3610471565b916024356064359360018060a01b031690818652856020528286208187526020528286206100f2868254610487565b905585526001602052818520610109858254610487565b9055845260026020528320918254610487565b905580f35b905081600319360112610188573560243561ffff811603610188573383528260205281832081845260205281832061015a348254610487565b905582526001602052808220610171348254610487565b90553382526002602052812061011c348254610487565b8280fd5b5050346100a75760203660031901126100a7576020906001600160a01b036101b2610471565b169051908152f35b9050346101885760603660031901126101885760209282916101da61045b565b503581528084528181206024358252845220549051908152f35b9050346101885760203660031901126101885760209282913581526001845220549051908152f35b9050346101885760203660031901126101885760209282913581526002845220549051908152f35b9092915034610457576060366003190112610457576024918235843561026861045b565b5033875260209387855283882082895285528284892054106104225750808752600184528183882054106103e0573387526002845281838820541061039e5786808093819333835282885286832081845288528683206102c98382546104aa565b90558252600187528582206102df8282546104aa565b9055338252600287528582206102f68282546104aa565b9055335af13d156103995767ffffffffffffffff3d81811161038757835191601f8201601f19908116603f0116830190811183821017610375578452815286843d92013e5b15610344578480f35b5162461bcd60e51b815292830152600f908201526e151c985b9cd9995c8819985a5b1959608a1b6044820152606490fd5b634e487b7160e01b8952604188528689fd5b634e487b7160e01b8852604187528588fd5b61033b565b825162461bcd60e51b8152808701859052601a818701527f496e73756666696369656e7420636f6c646b657920616c7068610000000000006044820152606490fd5b825162461bcd60e51b81528087018590526019818701527f496e73756666696369656e7420686f746b657920616c706861000000000000006044820152606490fd5b62461bcd60e51b815286810185905260128682015271496e73756666696369656e74207374616b6560701b6044820152606490fd5b8380fd5b6044359061ffff8216820361046c57565b600080fd5b600435906001600160a01b038216820361046c57565b9190820180921161049457565b634e487b7160e01b600052601160045260246000fd5b919082039182116104945756fea2646970667358221220709961500b279bd7f012fbc4614b2d1b6f6b12f7cc1c4dc3058755e45e0021fa64736f6c63430008140033",
  "linkReferences": {},
  "deployedLinkReferences": {}
}