{
  "_format": "hh-sol-artifact-1",
  "contractName": "MockStakingPrecompiledPallet",
  "sourceName": "contracts/StakingPrecompiledPallet.sol",
  "abi": [
    {
      "inputs": [],
      "stateMutability": "nonpayable",
      "type": "constructor"
    },
    {
      "inputs": [
        {
          "internalType": "bytes32",
          "name": "hotkey",
          "type": "bytes32"
        }
      ],
      "name": "addStake",
      "outputs": [],
      "stateMutability": "payable",
      "type": "function"
    },
    {
      "inputs": [
        {
          "internalType": "address",
          "name": "user",
          "type": "address"
        },
        {
          "internalType": "bytes32",
          "name": "hotkey",
          "type": "bytes32"
        },
        {
          "internalType": "uint256",
          "name": "netuid",
          "type": "uint256"
        },
        {
          "internalType": "uint256",
          "name": "amount",
          "type": "uint256"
        }
      ],
      "name": "addUserStake",
      "outputs": [],
      "stateMutability": "payable",
      "type": "function"
    },
    {
      "inputs": [
        {
          "internalType": "address",
          "name": "addr",
          "type": "address"
        }
      ],
      "name": "getBytes32",
      "outputs": [
        {
          "internalType": "bytes32",
          "name": "",
          "type": "bytes32"
        }
      ],
      "stateMutability": "view",
      "type": "function"
    },
    {
      "inputs": [
        {
          "internalType": "bytes32",
          "name": "hotkey",
          "type": "bytes32"
        },
        {
          "internalType": "uint256",
          "name": "netuid",
          "type": "uint256"
        },
        {
          "internalType": "uint256",
          "name": "amount",
          "type": "uint256"
        }
      ],
      "name": "removeStake",
      "outputs": [],
      "stateMutability": "nonpayable",
      "type": "function"
    },
    {
      "inputs": [
        {
          "internalType": "bytes32",
          "name": "coldkey",
          "type": "bytes32"
        }
      ],
      "name": "totalColdkeyAlpha",
      "outputs": [
        {
          "internalType": "uint256",
          "name": "",
          "type": "uint256"
        }
      ],
      "stateMutability": "view",
      "type": "function"
    },
    {
      "inputs": [
        {
          "internalType": "bytes32",
          "name": "hotkey",
          "type": "bytes32"
        }
      ],
      "name": "totalHotkeyAlpha",
      "outputs": [
        {
          "internalType": "uint256",
          "name": "",
          "type": "uint256"
        }
      ],
      "stateMutability": "view",
      "type": "function"
    },
    {
      "inputs": [],
      "name": "totalNetworks",
      "outputs": [
        {
          "internalType": "uint256",
          "name": "",
          "type": "uint256"
        }
      ],
      "stateMutability": "view",
      "type": "function"
    },
    {
      "stateMutability": "payable",
      "type": "receive"
    }
  ],
  "bytecode": "0x6080806040523461001b57600a60035561033b90816100218239f35b600080fdfe6080604081815260049182361015610022575b505050361561002057600080fd5b005b600092833560e01c918263065fee0f146102915750816311f927571461026957816366da754b146102175781637d691e301461013d575080639c54c9ec14610110578063b918a8a3146100a05763c0be7e8b1461007f5780610012565b3461009c578160031936011261009c576020906003549051908152f35b5080fd5b50608036600319011261009c5761010b6100b86102ba565b916024359260643593808652856020528286206100d68682546102d5565b9055855260016020528185206100ed8582546102d5565b90556001600160a01b031684526002602052832080549092906102d5565b905580f35b503461009c57602036600319011261009c576020906001600160a01b036101356102ba565b169051908152f35b90503461021357606036600319011261021357803560443591818552846020528284862054106101db5750838080938382948352826020528683206101838382546102f8565b90558252600160205285822061019a8282546102f8565b905533825260026020528582206101b28282546102f8565b90558181156101d2575b3390f1156101c8575080f35b51903d90823e3d90fd5b506108fc6101bc565b606490602085519162461bcd60e51b83528201526012602482015271496e73756666696369656e74207374616b6560701b6044820152fd5b8280fd5b9050602036600319011261021357358083528260205281832061023b3482546102d5565b9055825260016020528082206102523482546102d5565b90553382526002602052812061010b3482546102d5565b9050346102135760203660031901126102135760209282913581526001845220549051908152f35b929150346102b65760203660031901126102b657926020933581526002845220548152f35b8380fd5b600435906001600160a01b03821682036102d057565b600080fd5b919082018092116102e257565b634e487b7160e01b600052601160045260246000fd5b919082039182116102e25756fea264697066735822122050e18f12f7fcc1659f6ddb95fa4d2864251222bff8bbfb0fe820d2317b7cd10364736f6c63430008140033",
  "linkReferences": {},
  "deployedLinkReferences": {}
}