{
  "_format": "hh-sol-artifact-1",
  "contractName": "MockStakingPrecompiledPallet",
  "sourceName": "contracts/StakingPrecompiledPallet.sol",
  "abi": [
    {
      "inputs": [],
      "stateMutability": "nonpayable",
      "type": "constructor"
    },
    {
      "inputs": [
        {
          "internalType": "bytes32",
          "name": "hotkey",
          "type": "bytes32"
        },
        {
          "internalType": "uint16",
          "name": "netuid",
          "type": "uint16"
        }
      ],
      "name": "addStake",
      "outputs": [],
      "stateMutability": "payable",
      "type": "function"
    },
    {
      "inputs": [
        {
          "internalType": "bytes32",
          "name": "coldkey",
          "type": "bytes32"
        },
        {
          "internalType": "bytes32",
          "name": "hotkey",
          "type": "bytes32"
        },
        {
          "internalType": "uint256",
          "name": "netuid",
          "type": "uint256"
        },
        {
          "internalType": "uint256",
          "name": "amount",
          "type": "uint256"
        }
      ],
      "name": "addUserStake",
      "outputs": [],
      "stateMutability": "payable",
      "type": "function"
    },
    {
      "inputs": [
        {
          "internalType": "address",
          "name": "addr",
          "type": "address"
        }
      ],
      "name": "getBytes32",
      "outputs": [
        {
          "internalType": "bytes32",
          "name": "",
          "type": "bytes32"
        }
      ],
      "stateMutability": "view",
      "type": "function"
    },
    {
      "inputs": [
        {
          "internalType": "bytes32",
          "name": "coldkey",
          "type": "bytes32"
        },
        {
          "internalType": "bytes32",
          "name": "hotkey",
          "type": "bytes32"
        },
        {
          "internalType": "uint16",
          "name": "netuid",
          "type": "uint16"
        }
      ],
      "name": "getStake",
      "outputs": [
        {
          "internalType": "uint256",
          "name": "",
          "type": "uint256"
        }
      ],
      "stateMutability": "view",
      "type": "function"
    },
    {
      "inputs": [
        {
          "internalType": "bytes32",
          "name": "hotkey",
          "type": "bytes32"
        },
        {
          "internalType": "uint256",
          "name": "amount",
          "type": "uint256"
        },
        {
          "internalType": "uint16",
          "name": "netuid",
          "type": "uint16"
        }
      ],
      "name": "removeStake",
      "outputs": [],
      "stateMutability": "nonpayable",
      "type": "function"
    },
    {
      "inputs": [
        {
          "internalType": "address",
          "name": "user",
          "type": "address"
        },
        {
          "internalType": "bytes32",
          "name": "hotkey",
          "type": "bytes32"
        }
      ],
      "name": "setMapping",
      "outputs": [],
      "stateMutability": "nonpayable",
      "type": "function"
    },
    {
      "inputs": [
        {
          "internalType": "bytes32",
          "name": "coldkey",
          "type": "bytes32"
        }
      ],
      "name": "totalColdkeyAlpha",
      "outputs": [
        {
          "internalType": "uint256",
          "name": "",
          "type": "uint256"
        }
      ],
      "stateMutability": "view",
      "type": "function"
    },
    {
      "inputs": [
        {
          "internalType": "bytes32",
          "name": "hotkey",
          "type": "bytes32"
        }
      ],
      "name": "totalHotkeyAlpha",
      "outputs": [
        {
          "internalType": "uint256",
          "name": "",
          "type": "uint256"
        }
      ],
      "stateMutability": "view",
      "type": "function"
    },
    {
      "inputs": [],
      "name": "totalNetworks",
      "outputs": [
        {
          "internalType": "uint256",
          "name": "",
          "type": "uint256"
        }
      ],
      "stateMutability": "view",
      "type": "function"
    },
    {
      "stateMutability": "payable",
      "type": "receive"
    }
  ],
  "bytecode": "0x6080806040523461001b57600a60045561058a90816100218239f35b600080fdfe60406080815260049081361015610020575b5050361561001e57600080fd5b005b600091823560e01c80630636c28b14610282578063065fee0f1461025b57806311f92757146102345780635b9a419314610200578063646578e71461019d57806397dd53ba146101645780639c54c9ec14610132578063b6b11efd146100b05763c0be7e8b146100905750610011565b346100ac57826003193601126100ac5760209250549051908152f35b8280fd5b50816003193601126100ac573560243561ffff8116036100ac57338352600360205281832054906100e28215156104fb565b818452836020528284208185526020528284206101003482546104d8565b9055835260016020528183206101173482546104d8565b905582526002602052812061012d3482546104d8565b905580f35b505034610160576020366003190112610160576020906001600160a01b036101586104c2565b169051908152f35b5080fd5b50346100ac5760603660031901126100ac5760209282916101836104ac565b503581528084528181206024358252845220549051908152f35b5060803660031901126100ac5761012d9035916024359260643593818652856020528286208187526020528286206101d68682546104d8565b9055855260016020528185206101ed8582546104d8565b90558452600260205283209182546104d8565b5050346101605780600319360112610160576001600160a01b036102226104c2565b16825260036020526024359082205580f35b50346100ac5760203660031901126100ac5760209282913581526001845220549051908152f35b50346100ac5760203660031901126100ac5760209282913581526002845220549051908152f35b5090346100ac5760603660031901126100ac57813560249182356102a46104ac565b503386526020926003845282872054906102bf8215156104fb565b8188528785528388208189528552828489205410610475578088526001855282848920541061043357818852600285528284892054106103f1578780938382949383948452838952878420818552895287842061031d848254610547565b9055835260018852868320610333838254610547565b9055825260028752858220610349828254610547565b9055335af13d156103ec5767ffffffffffffffff3d8181116103da57835191601f8201601f19908116603f01168301908111838210176103c8578452815286843d92013e5b15610397578480f35b5162461bcd60e51b815292830152600f908201526e151c985b9cd9995c8819985a5b1959608a1b6044820152606490fd5b634e487b7160e01b8952604188528689fd5b634e487b7160e01b8852604187528588fd5b61038e565b835162461bcd60e51b8152808801869052601a818801527f496e73756666696369656e7420636f6c646b657920616c7068610000000000006044820152606490fd5b835162461bcd60e51b81528088018690526019818801527f496e73756666696369656e7420686f746b657920616c706861000000000000006044820152606490fd5b835162461bcd60e51b815280880186905260128188015271496e73756666696369656e74207374616b6560701b6044820152606490fd5b6044359061ffff821682036104bd57565b600080fd5b600435906001600160a01b03821682036104bd57565b919082018092116104e557565b634e487b7160e01b600052601160045260246000fd5b1561050257565b60405162461bcd60e51b815260206004820152601c60248201527f4e6f206d617070696e6720666f756e6420666f722061646472657373000000006044820152606490fd5b919082039182116104e55756fea26469706673582212200cbd831c16f2ef7e08d726ccfb97f7f1331dcffa1b546af2c5190100fa4f797e64736f6c63430008140033",
  "linkReferences": {},
  "deployedLinkReferences": {}
}