{
  "_format": "hh-sol-artifact-1",
  "contractName": "MockStakingPrecompiledPallet",
  "sourceName": "contracts/StakingPrecompiledPallet.sol",
  "abi": [
    {
      "inputs": [],
      "stateMutability": "nonpayable",
      "type": "constructor"
    },
    {
      "inputs": [
        {
          "internalType": "bytes32",
          "name": "hotkey",
          "type": "bytes32"
        }
      ],
      "name": "addStake",
      "outputs": [],
      "stateMutability": "payable",
      "type": "function"
    },
    {
      "inputs": [
        {
          "internalType": "address",
          "name": "user",
          "type": "address"
        },
        {
          "internalType": "bytes32",
          "name": "hotkey",
          "type": "bytes32"
        },
        {
          "internalType": "uint256",
          "name": "netuid",
          "type": "uint256"
        },
        {
          "internalType": "uint256",
          "name": "amount",
          "type": "uint256"
        }
      ],
      "name": "addUserStake",
      "outputs": [],
      "stateMutability": "payable",
      "type": "function"
    },
    {
      "inputs": [
        {
          "internalType": "address",
          "name": "addr",
          "type": "address"
        }
      ],
      "name": "getBytes32",
      "outputs": [
        {
          "internalType": "bytes32",
          "name": "",
          "type": "bytes32"
        }
      ],
      "stateMutability": "view",
      "type": "function"
    },
    {
      "inputs": [
        {
          "internalType": "bytes32",
          "name": "hotkey",
          "type": "bytes32"
        },
        {
          "internalType": "uint256",
          "name": "amount",
          "type": "uint256"
        }
      ],
      "name": "removeStake",
      "outputs": [],
      "stateMutability": "nonpayable",
      "type": "function"
    },
    {
      "inputs": [
        {
          "internalType": "bytes32",
          "name": "coldkey",
          "type": "bytes32"
        }
      ],
      "name": "totalColdkeyAlpha",
      "outputs": [
        {
          "internalType": "uint256",
          "name": "",
          "type": "uint256"
        }
      ],
      "stateMutability": "view",
      "type": "function"
    },
    {
      "inputs": [
        {
          "internalType": "bytes32",
          "name": "hotkey",
          "type": "bytes32"
        }
      ],
      "name": "totalHotkeyAlpha",
      "outputs": [
        {
          "internalType": "uint256",
          "name": "",
          "type": "uint256"
        }
      ],
      "stateMutability": "view",
      "type": "function"
    },
    {
      "inputs": [],
      "name": "totalNetworks",
      "outputs": [
        {
          "internalType": "uint256",
          "name": "",
          "type": "uint256"
        }
      ],
      "stateMutability": "view",
      "type": "function"
    },
    {
      "stateMutability": "payable",
      "type": "receive"
    }
  ],
  "bytecode": "0x6080806040523461001b57600a60035561045e90816100218239f35b600080fdfe6080604081815260049182361015610022575b505050361561002057600080fd5b005b600092833560e01c918263065fee0f146103b45750816311f927571461038c5781632159bbf61461019357816366da754b1461013d575080639c54c9ec14610110578063b918a8a3146100a05763c0be7e8b1461007f5780610012565b3461009c578160031936011261009c576020906003549051908152f35b5080fd5b50608036600319011261009c5761010b6100b86103dd565b916024359260643593808652856020528286206100d68682546103f8565b9055855260016020528185206100ed8582546103f8565b90556001600160a01b031684526002602052832080549092906103f8565b905580f35b503461009c57602036600319011261009c576020906001600160a01b036101356103dd565b169051908152f35b9050602036600319011261018f5735808352826020528183206101613482546103f8565b9055825260016020528082206101783482546103f8565b90553382526002602052812061010b3482546103f8565b8280fd5b9190503461018f578060031936011261018f5781356024918235828652602092868452818388205410610355578087526001845281838820541061031357338752600284528183882054106102d1578680809383829483528288528683206101fc83825461041b565b905582526001875285822061021282825461041b565b90553382526002875285822061022982825461041b565b9055335af13d156102cc5767ffffffffffffffff3d8181116102ba57835191601f8201601f19908116603f01168301908111838210176102a8578452815286843d92013e5b15610277578480f35b5162461bcd60e51b815292830152600f908201526e151c985b9cd9995c8819985a5b1959608a1b6044820152606490fd5b634e487b7160e01b8952604188528689fd5b634e487b7160e01b8852604187528588fd5b61026e565b825162461bcd60e51b8152808701859052601a818701527f496e73756666696369656e7420636f6c646b657920616c7068610000000000006044820152606490fd5b825162461bcd60e51b81528087018590526019818701527f496e73756666696369656e7420686f746b657920616c706861000000000000006044820152606490fd5b825162461bcd60e51b815280870185905260128187015271496e73756666696369656e74207374616b6560701b6044820152606490fd5b90503461018f57602036600319011261018f5760209282913581526001845220549051908152f35b929150346103d95760203660031901126103d957926020933581526002845220548152f35b8380fd5b600435906001600160a01b03821682036103f357565b600080fd5b9190820180921161040557565b634e487b7160e01b600052601160045260246000fd5b919082039182116104055756fea26469706673582212204970dfee79c6cf5a7502a9403ec2f37a56bcdacfef76599c6381b821944228c964736f6c63430008140033",
  "linkReferences": {},
  "deployedLinkReferences": {}
}