{
  "_format": "hh-sol-artifact-1",
  "contractName": "MockStakingPrecompiledPallet",
  "sourceName": "contracts/StakingPrecompiledPallet.sol",
  "abi": [
    {
      "inputs": [],
      "stateMutability": "nonpayable",
      "type": "constructor"
    },
    {
      "inputs": [
        {
          "internalType": "bytes32",
          "name": "hotkey",
          "type": "bytes32"
        },
        {
          "internalType": "uint16",
          "name": "netuid",
          "type": "uint16"
        }
      ],
      "name": "addStake",
      "outputs": [],
      "stateMutability": "payable",
      "type": "function"
    },
    {
      "inputs": [
        {
          "internalType": "address",
          "name": "user",
          "type": "address"
        },
        {
          "internalType": "bytes32",
          "name": "hotkey",
          "type": "bytes32"
        },
        {
          "internalType": "uint256",
          "name": "netuid",
          "type": "uint256"
        },
        {
          "internalType": "uint256",
          "name": "amount",
          "type": "uint256"
        }
      ],
      "name": "addUserStake",
      "outputs": [],
      "stateMutability": "payable",
      "type": "function"
    },
    {
      "inputs": [
        {
          "internalType": "address",
          "name": "addr",
          "type": "address"
        }
      ],
      "name": "getBytes32",
      "outputs": [
        {
          "internalType": "bytes32",
          "name": "",
          "type": "bytes32"
        }
      ],
      "stateMutability": "view",
      "type": "function"
    },
    {
      "inputs": [
        {
          "internalType": "bytes32",
          "name": "hotkey",
          "type": "bytes32"
        },
        {
          "internalType": "uint256",
          "name": "amount",
          "type": "uint256"
        },
        {
          "internalType": "uint16",
          "name": "netuid",
          "type": "uint16"
        }
      ],
      "name": "removeStake",
      "outputs": [],
      "stateMutability": "nonpayable",
      "type": "function"
    },
    {
      "inputs": [
        {
          "internalType": "bytes32",
          "name": "coldkey",
          "type": "bytes32"
        }
      ],
      "name": "totalColdkeyAlpha",
      "outputs": [
        {
          "internalType": "uint256",
          "name": "",
          "type": "uint256"
        }
      ],
      "stateMutability": "view",
      "type": "function"
    },
    {
      "inputs": [
        {
          "internalType": "bytes32",
          "name": "hotkey",
          "type": "bytes32"
        }
      ],
      "name": "totalHotkeyAlpha",
      "outputs": [
        {
          "internalType": "uint256",
          "name": "",
          "type": "uint256"
        }
      ],
      "stateMutability": "view",
      "type": "function"
    },
    {
      "inputs": [],
      "name": "totalNetworks",
      "outputs": [
        {
          "internalType": "uint256",
          "name": "",
          "type": "uint256"
        }
      ],
      "stateMutability": "view",
      "type": "function"
    },
    {
      "stateMutability": "payable",
      "type": "receive"
    }
  ],
  "bytecode": "0x6080806040523461001b57600a60035561048090816100218239f35b600080fdfe6080604081815260049182361015610022575b505050361561002057600080fd5b005b600092833560e01c9182630636c28b146101f057508163065fee0f146101c857816311f92757146101a05781639c54c9ec14610172578163b6b11efd1461011057508063b918a8a3146100a05763c0be7e8b1461007f5780610012565b3461009c578160031936011261009c576020906003549051908152f35b5080fd5b50608036600319011261009c5761010b6100b86103ff565b916024359260643593808652856020528286206100d686825461041a565b9055855260016020528185206100ed85825461041a565b90556001600160a01b0316845260026020528320805490929061041a565b905580f35b90508160031936011261016e573560243561ffff81160361016e578083528260205281832061014034825461041a565b90558252600160205280822061015734825461041a565b90553382526002602052812061010b34825461041a565b8280fd5b50503461009c57602036600319011261009c576020906001600160a01b036101986103ff565b169051908152f35b90503461016e57602036600319011261016e5760209282913581526001845220549051908152f35b90503461016e57602036600319011261016e5760209282913581526002845220549051908152f35b90929150346103fb5760603660031901126103fb576024918235843560443561ffff8116036103f7578087526020938785528284892054106103c2575080875260018452818388205410610380573387526002845281838820541061033e5786808093838294835282885286832061026983825461043d565b905582526001875285822061027f82825461043d565b90553382526002875285822061029682825461043d565b9055335af13d156103395767ffffffffffffffff3d81811161032757835191601f8201601f19908116603f0116830190811183821017610315578452815286843d92013e5b156102e4578480f35b5162461bcd60e51b815292830152600f908201526e151c985b9cd9995c8819985a5b1959608a1b6044820152606490fd5b634e487b7160e01b8952604188528689fd5b634e487b7160e01b8852604187528588fd5b6102db565b825162461bcd60e51b8152808701859052601a818701527f496e73756666696369656e7420636f6c646b657920616c7068610000000000006044820152606490fd5b825162461bcd60e51b81528087018590526019818701527f496e73756666696369656e7420686f746b657920616c706861000000000000006044820152606490fd5b62461bcd60e51b815286810185905260128682015271496e73756666696369656e74207374616b6560701b6044820152606490fd5b8680fd5b8380fd5b600435906001600160a01b038216820361041557565b600080fd5b9190820180921161042757565b634e487b7160e01b600052601160045260246000fd5b919082039182116104275756fea26469706673582212205bec53cd5af7f42181ddc1d62c54ed77fb147b9ce58ae884593a47f2a8717e0f64736f6c63430008140033",
  "linkReferences": {},
  "deployedLinkReferences": {}
}