{
  "_format": "hh-sol-artifact-1",
  "contractName": "MockStakingPrecompiledPallet",
  "sourceName": "contracts/StakingPrecompiledPallet.sol",
  "abi": [
    {
      "inputs": [],
      "stateMutability": "nonpayable",
      "type": "constructor"
    },
    {
      "inputs": [
        {
          "internalType": "uint256",
          "name": "amount",
          "type": "uint256"
        },
        {
          "internalType": "uint256",
          "name": "subnetId",
          "type": "uint256"
        }
      ],
      "name": "addLiquidityAlpha",
      "outputs": [],
      "stateMutability": "nonpayable",
      "type": "function"
    },
    {
      "inputs": [
        {
          "internalType": "uint256",
          "name": "taoAmt",
          "type": "uint256"
        },
        {
          "internalType": "uint256",
          "name": "alphaAmt",
          "type": "uint256"
        },
        {
          "internalType": "uint256",
          "name": "subnetId",
          "type": "uint256"
        }
      ],
      "name": "addLiquidityBothSides",
      "outputs": [],
      "stateMutability": "nonpayable",
      "type": "function"
    },
    {
      "inputs": [
        {
          "internalType": "bytes32",
          "name": "hotkey",
          "type": "bytes32"
        },
        {
          "internalType": "uint256",
          "name": "netuid",
          "type": "uint256"
        }
      ],
      "name": "addStake",
      "outputs": [],
      "stateMutability": "payable",
      "type": "function"
    },
    {
      "inputs": [
        {
          "internalType": "address",
          "name": "user",
          "type": "address"
        },
        {
          "internalType": "bytes32",
          "name": "hotkey",
          "type": "bytes32"
        },
        {
          "internalType": "uint256",
          "name": "netuid",
          "type": "uint256"
        },
        {
          "internalType": "uint256",
          "name": "amount",
          "type": "uint256"
        }
      ],
      "name": "addUserStake",
      "outputs": [],
      "stateMutability": "nonpayable",
      "type": "function"
    },
    {
      "inputs": [
        {
          "internalType": "uint256",
          "name": "netuid",
          "type": "uint256"
        },
        {
          "internalType": "uint256",
          "name": "amountIn",
          "type": "uint256"
        },
        {
          "internalType": "bool",
          "name": "isNativeToAlpha",
          "type": "bool"
        }
      ],
      "name": "calculateSwapOutput",
      "outputs": [
        {
          "internalType": "uint256",
          "name": "",
          "type": "uint256"
        }
      ],
      "stateMutability": "view",
      "type": "function"
    },
    {
      "inputs": [
        {
          "internalType": "address",
          "name": "user",
          "type": "address"
        },
        {
          "internalType": "bytes32",
          "name": "hotkey",
          "type": "bytes32"
        },
        {
          "internalType": "uint256",
          "name": "amount",
          "type": "uint256"
        }
      ],
      "name": "distributeGDT",
      "outputs": [],
      "stateMutability": "nonpayable",
      "type": "function"
    },
    {
      "inputs": [
        {
          "internalType": "address",
          "name": "addr",
          "type": "address"
        }
      ],
      "name": "getBytes32",
      "outputs": [
        {
          "internalType": "bytes32",
          "name": "",
          "type": "bytes32"
        }
      ],
      "stateMutability": "view",
      "type": "function"
    },
    {
      "inputs": [
        {
          "internalType": "bytes32",
          "name": "src_hotkey",
          "type": "bytes32"
        },
        {
          "internalType": "uint256",
          "name": "src_netuid",
          "type": "uint256"
        },
        {
          "internalType": "bytes32",
          "name": "dst_hotkey",
          "type": "bytes32"
        },
        {
          "internalType": "uint256",
          "name": "dst_netuid",
          "type": "uint256"
        },
        {
          "internalType": "uint256",
          "name": "amount",
          "type": "uint256"
        }
      ],
      "name": "moveStake",
      "outputs": [],
      "stateMutability": "nonpayable",
      "type": "function"
    },
    {
      "inputs": [
        {
          "internalType": "bytes32",
          "name": "hotkey",
          "type": "bytes32"
        },
        {
          "internalType": "uint256",
          "name": "netuid",
          "type": "uint256"
        },
        {
          "internalType": "uint256",
          "name": "amount",
          "type": "uint256"
        }
      ],
      "name": "removeStake",
      "outputs": [],
      "stateMutability": "nonpayable",
      "type": "function"
    },
    {
      "inputs": [
        {
          "internalType": "uint256",
          "name": "netuid",
          "type": "uint256"
        },
        {
          "internalType": "uint256",
          "name": "alpha",
          "type": "uint256"
        }
      ],
      "name": "setSubnetAlpha",
      "outputs": [],
      "stateMutability": "nonpayable",
      "type": "function"
    },
    {
      "inputs": [
        {
          "internalType": "uint256",
          "name": "netuid",
          "type": "uint256"
        },
        {
          "internalType": "uint256",
          "name": "tao",
          "type": "uint256"
        }
      ],
      "name": "setSubnetTAO",
      "outputs": [],
      "stateMutability": "nonpayable",
      "type": "function"
    },
    {
      "inputs": [
        {
          "internalType": "uint256",
          "name": "netuid",
          "type": "uint256"
        }
      ],
      "name": "subnetAlphaIn",
      "outputs": [
        {
          "internalType": "uint256",
          "name": "",
          "type": "uint256"
        }
      ],
      "stateMutability": "view",
      "type": "function"
    },
    {
      "inputs": [
        {
          "internalType": "uint256",
          "name": "",
          "type": "uint256"
        }
      ],
      "name": "subnetAlphas",
      "outputs": [
        {
          "internalType": "uint256",
          "name": "",
          "type": "uint256"
        }
      ],
      "stateMutability": "view",
      "type": "function"
    },
    {
      "inputs": [
        {
          "internalType": "uint256",
          "name": "",
          "type": "uint256"
        }
      ],
      "name": "subnetTAOs",
      "outputs": [
        {
          "internalType": "uint256",
          "name": "",
          "type": "uint256"
        }
      ],
      "stateMutability": "view",
      "type": "function"
    },
    {
      "inputs": [
        {
          "internalType": "bytes32",
          "name": "coldkey",
          "type": "bytes32"
        },
        {
          "internalType": "uint256",
          "name": "netuid",
          "type": "uint256"
        }
      ],
      "name": "totalColdkeyAlpha",
      "outputs": [
        {
          "internalType": "uint256",
          "name": "",
          "type": "uint256"
        }
      ],
      "stateMutability": "view",
      "type": "function"
    },
    {
      "inputs": [
        {
          "internalType": "bytes32",
          "name": "hotkey",
          "type": "bytes32"
        },
        {
          "internalType": "uint256",
          "name": "netuid",
          "type": "uint256"
        }
      ],
      "name": "totalHotkeyAlpha",
      "outputs": [
        {
          "internalType": "uint256",
          "name": "",
          "type": "uint256"
        }
      ],
      "stateMutability": "view",
      "type": "function"
    },
    {
      "inputs": [],
      "name": "totalNetworks",
      "outputs": [
        {
          "internalType": "uint256",
          "name": "",
          "type": "uint256"
        }
      ],
      "stateMutability": "view",
      "type": "function"
    },
    {
      "stateMutability": "payable",
      "type": "receive"
    }
  ],
  "bytecode": "0x6040608081523461006f57600590600a825560005b825481101561006157806000526020600181526002620f424091828560002055528260002055600019811461004b57600101610014565b634e487b7160e01b600052601160045260246000fd5b50516109c990816100758239f35b600080fdfe60406080815260049081361015610020575b5050361561001e57600080fd5b005b600091823560e01c80631c681616146108d2578063313337ea146108b35780635e4df2ff14610887578063717187f2146107c257806376cba598146107975780637b85c772146106d35780637d691e30146104f557806388100fef146104ce57806388374a4e146104a75780639657592a146104805780639c54c9ec14610452578063b918a8a3146103b9578063c0be7e8b1461039a578063c84654a8146102a2578063d80f5a0f1461015c578063dbd88c86146101125763f056dd27146100e85750610011565b3461010e57602036600319011261010e5760209282913581526001845220549051908152f35b8280fd5b503461010e57606036600319011261010e5760443590818452600260205261013f83852091358254610922565b90558252600160205281206101576024358254610922565b905580f35b5091903461029e5760a036600319011261029e5782359060243593604435926064359160843594851561025b57869783610157979852602093898552868a20828b5285526101af89888c20541015610952565b808a52898552868a20828b528552868a206101cb8a8254610945565b9055895260038452858920818a5284528589206101e9898254610945565b90553389528284528589209089528352848820610207888254610945565b90558088528783528488208489528352848820610225888254610922565b90558752600382528387208388528252838720610243878254610922565b90553387528152828620918652528320918254610922565b845162461bcd60e51b8152602081840152601d60248201527f416d6f756e74206d7573742062652067726561746572207468616e20300000006044820152606490fd5b5080fd5b5091906102ae366108f1565b8084939293526020906002825282852054600183528386205490813402913483041434151715610387576102e3903490610922565b9081156103745791876101579594926001940496808952888452858920838a528452858920610313898254610922565b90558852600383528488208289528352848820610331888254610922565b90553388528252838720818852825283872061034e878254610922565b905580875260028252838720610365348254610922565b90558652528320918254610945565b634e487b7160e01b875260128852602487fd5b634e487b7160e01b875260118852602487fd5b50503461029e578160031936011261029e576020906005549051908152f35b50503461029e57608036600319011261029e576101576103d761090c565b916002604435936064359460243587526020918783528488208289528352848820610403888254610922565b90556001600160a01b03168752600382528387208188528252838720805461042c908890610922565b905580875260018252838720610443878254610922565b90558652528320918254610922565b50503461029e57602036600319011261029e576020906001600160a01b0361047861090c565b169051908152f35b503461010e57602036600319011261010e5760209282913581526001845220549051908152f35b50503461029e576101576104ba366108f1565b849391935260016020528320918254610922565b503461010e57602036600319011261010e5760209282913581526002845220549051908152f35b503461010e57606036600319011261010e5780359060243560443591838652602092868452858720838852845261053181878920541015610952565b82875260018452858720546002855286882054908183029183830414831517156106c0578261055f91610922565b9081156106ad5704948088528785528688208489528552868820610584838254610945565b905587526003845285872083885284528587206105a2828254610945565b905533875281845285872083885284528587206105c0828254610945565b90558287526001845280868820541061067557828752600184526105e8868820918254610922565b90558186526002835283858720541061063f5750848093600282948394845252858220610616828254610945565b9055818115610636575b3390f11561062c575080f35b51903d90823e3d90fd5b506108fc610620565b845162461bcd60e51b8152908101839052601060248201526f496e73756666696369656e742054414f60801b6044820152606490fd5b855162461bcd60e51b81528083018590526012602482015271496e73756666696369656e7420616c70686160701b6044820152606490fd5b634e487b7160e01b895260128452602489fd5b634e487b7160e01b895260118452602489fd5b509134610794576060366003190112610794576106ee61090c565b602493843593909160443591906001600160a01b0316845b60055481101561079057868652602060038152838720828852815283872061072f868254610922565b9055828752858152838720828852815283872061074d868254610922565b9055878752868152838720908288525282862061076b858254610922565b9055600019811461077e57600101610706565b634e487b7160e01b8652601185528786fd5b8580f35b80fd5b503461010e5760209282916107ab366108f1565b919083528552828220908252845220549051908152f35b50913461079457606036600319011261079457604435916024358435841515850361088357841561087157808452600260205282842054945b15610860578352600160205281832054935b84820294828604148215171561084d579061082791610922565b91821561083a5750602093505191048152f35b634e487b7160e01b815260128552602490fd5b634e487b7160e01b845260118652602484fd5b83526002602052818320549361080d565b808452600160205282842054946107fb565b8380fd5b50503461029e578060209261089b366108f1565b90825260038552828220908252845220549051908152f35b50503461029e576108c3366108f1565b91908352600160205282205580f35b50503461029e576108e2366108f1565b91908352600260205282205580f35b6040906003190112610907576004359060243590565b600080fd5b600435906001600160a01b038216820361090757565b9190820180921161092f57565b634e487b7160e01b600052601160045260246000fd5b9190820391821161092f57565b1561095957565b60405162461bcd60e51b8152602060048201526012602482015271496e73756666696369656e74207374616b6560701b6044820152606490fdfea2646970667358221220a5ff5ac8e58b90e6efc9a49b9ef04f43c9af5beba13f25a8d61d3521f646ad9864736f6c63430008140033",
  "linkReferences": {},
  "deployedLinkReferences": {}
}