{
  "_format": "hh-sol-artifact-1",
  "contractName": "MockStakingPrecompiledPallet",
  "sourceName": "contracts/StakingPrecompiledPallet.sol",
  "abi": [
    {
      "inputs": [],
      "stateMutability": "nonpayable",
      "type": "constructor"
    },
    {
      "inputs": [
        {
          "internalType": "bytes32",
          "name": "hotkey",
          "type": "bytes32"
        }
      ],
      "name": "addStake",
      "outputs": [],
      "stateMutability": "payable",
      "type": "function"
    },
    {
      "inputs": [
        {
          "internalType": "address",
          "name": "user",
          "type": "address"
        },
        {
          "internalType": "bytes32",
          "name": "hotkey",
          "type": "bytes32"
        },
        {
          "internalType": "uint256",
          "name": "netuid",
          "type": "uint256"
        },
        {
          "internalType": "uint256",
          "name": "amount",
          "type": "uint256"
        }
      ],
      "name": "addUserStake",
      "outputs": [],
      "stateMutability": "nonpayable",
      "type": "function"
    },
    {
      "inputs": [
        {
          "internalType": "address",
          "name": "addr",
          "type": "address"
        }
      ],
      "name": "getBytes32",
      "outputs": [
        {
          "internalType": "bytes32",
          "name": "",
          "type": "bytes32"
        }
      ],
      "stateMutability": "view",
      "type": "function"
    },
    {
      "inputs": [
        {
          "internalType": "bytes32",
          "name": "hotkey",
          "type": "bytes32"
        },
        {
          "internalType": "uint256",
          "name": "netuid",
          "type": "uint256"
        },
        {
          "internalType": "uint256",
          "name": "amount",
          "type": "uint256"
        }
      ],
      "name": "removeStake",
      "outputs": [],
      "stateMutability": "nonpayable",
      "type": "function"
    },
    {
      "inputs": [
        {
          "internalType": "bytes32",
          "name": "coldkey",
          "type": "bytes32"
        }
      ],
      "name": "totalColdkeyAlpha",
      "outputs": [
        {
          "internalType": "uint256",
          "name": "",
          "type": "uint256"
        }
      ],
      "stateMutability": "view",
      "type": "function"
    },
    {
      "inputs": [
        {
          "internalType": "bytes32",
          "name": "hotkey",
          "type": "bytes32"
        }
      ],
      "name": "totalHotkeyAlpha",
      "outputs": [
        {
          "internalType": "uint256",
          "name": "",
          "type": "uint256"
        }
      ],
      "stateMutability": "view",
      "type": "function"
    },
    {
      "inputs": [],
      "name": "totalNetworks",
      "outputs": [
        {
          "internalType": "uint256",
          "name": "",
          "type": "uint256"
        }
      ],
      "stateMutability": "view",
      "type": "function"
    },
    {
      "stateMutability": "payable",
      "type": "receive"
    }
  ],
  "bytecode": "0x6080806040523461001b57600a60035561034090816100218239f35b600080fdfe6080604081815260049182361015610022575b505050361561002057600080fd5b005b600092833560e01c918263065fee0f146102965750816311f927571461026e57816366da754b1461021c5781637d691e3014610142575080639c54c9ec14610115578063b918a8a3146100a05763c0be7e8b1461007f5780610012565b3461009c578160031936011261009c576020906003549051908152f35b5080fd5b503461009c57608036600319011261009c576101106100bd6102bf565b916024359260643593808652856020528286206100db8682546102da565b9055855260016020528185206100f28582546102da565b90556001600160a01b031684526002602052832080549092906102da565b905580f35b503461009c57602036600319011261009c576020906001600160a01b0361013a6102bf565b169051908152f35b90503461021857606036600319011261021857803560443591818552846020528284862054106101e05750838080938382948352826020528683206101888382546102fd565b90558252600160205285822061019f8282546102fd565b905533825260026020528582206101b78282546102fd565b90558181156101d7575b3390f1156101cd575080f35b51903d90823e3d90fd5b506108fc6101c1565b606490602085519162461bcd60e51b83528201526012602482015271496e73756666696369656e74207374616b6560701b6044820152fd5b8280fd5b905060203660031901126102185735808352826020528183206102403482546102da565b9055825260016020528082206102573482546102da565b9055338252600260205281206101103482546102da565b9050346102185760203660031901126102185760209282913581526001845220549051908152f35b929150346102bb5760203660031901126102bb57926020933581526002845220548152f35b8380fd5b600435906001600160a01b03821682036102d557565b600080fd5b919082018092116102e757565b634e487b7160e01b600052601160045260246000fd5b919082039182116102e75756fea264697066735822122052708393692fb40b4a2ae21f05185b36f062c41e8a5c714530bb1d67872f589164736f6c63430008140033",
  "linkReferences": {},
  "deployedLinkReferences": {}
}