{
  "_format": "hh-sol-artifact-1",
  "contractName": "MockStakingPrecompiledPallet",
  "sourceName": "contracts/StakingPrecompiledPallet.sol",
  "abi": [
    {
      "inputs": [],
      "stateMutability": "nonpayable",
      "type": "constructor"
    },
    {
      "inputs": [
        {
          "internalType": "bytes32",
          "name": "hotkey",
          "type": "bytes32"
        },
        {
          "internalType": "uint16",
          "name": "netuid",
          "type": "uint16"
        }
      ],
      "name": "addStake",
      "outputs": [],
      "stateMutability": "payable",
      "type": "function"
    },
    {
      "inputs": [
        {
          "internalType": "bytes32",
          "name": "coldkey",
          "type": "bytes32"
        },
        {
          "internalType": "bytes32",
          "name": "hotkey",
          "type": "bytes32"
        },
        {
          "internalType": "uint256",
          "name": "netuid",
          "type": "uint256"
        },
        {
          "internalType": "uint256",
          "name": "amount",
          "type": "uint256"
        }
      ],
      "name": "addUserStake",
      "outputs": [],
      "stateMutability": "payable",
      "type": "function"
    },
    {
      "inputs": [
        {
          "internalType": "bytes32",
          "name": "coldkey",
          "type": "bytes32"
        },
        {
          "internalType": "bytes32",
          "name": "hotkey",
          "type": "bytes32"
        },
        {
          "internalType": "uint16",
          "name": "netuid",
          "type": "uint16"
        }
      ],
      "name": "getStake",
      "outputs": [
        {
          "internalType": "uint256",
          "name": "",
          "type": "uint256"
        }
      ],
      "stateMutability": "view",
      "type": "function"
    },
    {
      "inputs": [
        {
          "internalType": "bytes32",
          "name": "hotkey",
          "type": "bytes32"
        },
        {
          "internalType": "uint256",
          "name": "amount",
          "type": "uint256"
        },
        {
          "internalType": "uint16",
          "name": "netuid",
          "type": "uint16"
        }
      ],
      "name": "removeStake",
      "outputs": [],
      "stateMutability": "nonpayable",
      "type": "function"
    },
    {
      "inputs": [
        {
          "internalType": "address",
          "name": "user",
          "type": "address"
        },
        {
          "internalType": "bytes32",
          "name": "hotkey",
          "type": "bytes32"
        }
      ],
      "name": "setMapping",
      "outputs": [],
      "stateMutability": "nonpayable",
      "type": "function"
    },
    {
      "inputs": [
        {
          "internalType": "bytes32",
          "name": "coldkey",
          "type": "bytes32"
        }
      ],
      "name": "totalColdkeyAlpha",
      "outputs": [
        {
          "internalType": "uint256",
          "name": "",
          "type": "uint256"
        }
      ],
      "stateMutability": "view",
      "type": "function"
    },
    {
      "inputs": [
        {
          "internalType": "bytes32",
          "name": "hotkey",
          "type": "bytes32"
        }
      ],
      "name": "totalHotkeyAlpha",
      "outputs": [
        {
          "internalType": "uint256",
          "name": "",
          "type": "uint256"
        }
      ],
      "stateMutability": "view",
      "type": "function"
    },
    {
      "inputs": [],
      "name": "totalNetworks",
      "outputs": [
        {
          "internalType": "uint256",
          "name": "",
          "type": "uint256"
        }
      ],
      "stateMutability": "view",
      "type": "function"
    },
    {
      "stateMutability": "payable",
      "type": "receive"
    }
  ],
  "bytecode": "0x6080806040523461001b57600a60045561053890816100218239f35b600080fdfe60406080815260049081361015610020575b5050361561001e57600080fd5b005b600091823560e01c80630636c28b14610246578063065fee0f1461021f57806311f92757146101f85780635b9a4193146101c3578063646578e71461016057806397dd53ba14610127578063b6b11efd146100a55763c0be7e8b146100855750610011565b346100a157826003193601126100a15760209250549051908152f35b8280fd5b50816003193601126100a1573560243561ffff8116036100a157338352600360205281832054906100d78215156104a9565b818452836020528284208185526020528284206100f5348254610486565b90558352600160205281832061010c348254610486565b9055825260026020528120610122348254610486565b905580f35b50346100a15760603660031901126100a1576020928291610146610470565b503581528084528181206024358252845220549051908152f35b5060803660031901126100a157610122903591602435926064359381865285602052828620818752602052828620610199868254610486565b9055855260016020528185206101b0858254610486565b9055845260026020528320918254610486565b50346100a157816003193601126100a157356001600160a01b038116908190036100a157825260036020526024359082205580f35b50346100a15760203660031901126100a15760209282913581526001845220549051908152f35b50346100a15760203660031901126100a15760209282913581526002845220549051908152f35b5090346100a15760603660031901126100a15781356024918235610268610470565b503386526020926003845282872054906102838215156104a9565b818852878552838820818952855282848920541061043957808852600185528284892054106103f757818852600285528284892054106103b557878093838294938394845283895287842081855289528784206102e18482546104f5565b90558352600188528683206102f78382546104f5565b905582526002875285822061030d8282546104f5565b9055335af13d156103b05767ffffffffffffffff3d81811161039e57835191601f8201601f19908116603f011683019081118382101761038c578452815286843d92013e5b1561035b578480f35b5162461bcd60e51b815292830152600f908201526e151c985b9cd9995c8819985a5b1959608a1b6044820152606490fd5b634e487b7160e01b8952604188528689fd5b634e487b7160e01b8852604187528588fd5b610352565b835162461bcd60e51b8152808801869052601a818801527f496e73756666696369656e7420636f6c646b657920616c7068610000000000006044820152606490fd5b835162461bcd60e51b81528088018690526019818801527f496e73756666696369656e7420686f746b657920616c706861000000000000006044820152606490fd5b835162461bcd60e51b815280880186905260128188015271496e73756666696369656e74207374616b6560701b6044820152606490fd5b6044359061ffff8216820361048157565b600080fd5b9190820180921161049357565b634e487b7160e01b600052601160045260246000fd5b156104b057565b60405162461bcd60e51b815260206004820152601c60248201527f4e6f206d617070696e6720666f756e6420666f722061646472657373000000006044820152606490fd5b919082039182116104935756fea2646970667358221220eb55136d70c62c8278002417070121e7d2360222539d1561fc2fc1ef366a175764736f6c63430008140033",
  "linkReferences": {},
  "deployedLinkReferences": {}
}