{
  "_format": "hh-sol-artifact-1",
  "contractName": "MockSubnetPrecompiledPallet",
  "sourceName": "contracts/SubnetPrecompiledPallet.sol",
  "abi": [
    {
      "anonymous": false,
      "inputs": [
        {
          "indexed": false,
          "internalType": "address",
          "name": "user",
          "type": "address"
        },
        {
          "indexed": false,
          "internalType": "uint256",
          "name": "netuid",
          "type": "uint256"
        }
      ],
      "name": "SubnetPrecompiledPalletBurnedRegister",
      "type": "event"
    },
    {
      "stateMutability": "payable",
      "type": "fallback"
    },
    {
      "inputs": [
        {
          "internalType": "uint256",
          "name": "netuid",
          "type": "uint256"
        }
      ],
      "name": "burnedRegister",
      "outputs": [],
      "stateMutability": "payable",
      "type": "function"
    },
    {
      "inputs": [
        {
          "internalType": "uint256",
          "name": "netuid",
          "type": "uint256"
        }
      ],
      "name": "getRegisteredUsers",
      "outputs": [
        {
          "internalType": "address[]",
          "name": "",
          "type": "address[]"
        }
      ],
      "stateMutability": "view",
      "type": "function"
    },
    {
      "inputs": [
        {
          "internalType": "uint256",
          "name": "",
          "type": "uint256"
        },
        {
          "internalType": "uint256",
          "name": "",
          "type": "uint256"
        }
      ],
      "name": "registeredUsers",
      "outputs": [
        {
          "internalType": "address",
          "name": "",
          "type": "address"
        }
      ],
      "stateMutability": "view",
      "type": "function"
    },
    {
      "inputs": [
        {
          "internalType": "uint256",
          "name": "_tempo",
          "type": "uint256"
        }
      ],
      "name": "setTempo",
      "outputs": [],
      "stateMutability": "nonpayable",
      "type": "function"
    },
    {
      "inputs": [],
      "name": "tempo",
      "outputs": [
        {
          "internalType": "uint256",
          "name": "",
          "type": "uint256"
        }
      ],
      "stateMutability": "view",
      "type": "function"
    },
    {
      "stateMutability": "payable",
      "type": "receive"
    }
  ],
  "bytecode": "0x6080806040523461001c57611c206001556102c690816100228239f35b600080fdfe6040608081526004908136101561001d575b5050361561001b57005b005b600091823560e01c9081635923e0ca146101c65781636bc14d88146100e85781638f63dd7c146100ce578163a3db22e01461007e575063bb1d592d03610011573461007a578160031936011261007a576020906001549051908152f35b5080fd5b8284346100cb57816003193601126100cb5760243592358152806020528181209081548410156100cb57506020926100b591610262565b905491519160018060a01b039160031b1c168152f35b80fd5b83903461007a57602036600319011261007a573560015580f35b83833461007a576020806003193601126101c2578335835282815281832092825192838386549182815201908196845284842090845b868282106101a55750505050849003601f01601f191684019567ffffffffffffffff871185881017610192575085815282865292518583018190528594938501939290915b82811061017257505050500390f35b83516001600160a01b031685528695509381019392810192600101610163565b634e487b7160e01b835260419052602482fd5b83546001600160a01b03168552909301926001928301920161011e565b8280fd5b8383602036600319011261007a578235808352826020528183208054906801000000000000000082101561024f57816102279160017f5938fc51250888803dcbd7e9fb7f90985cca98aede6a8870e381a79f18827451969594018155610262565b81549060031b9033821b9160018060a01b03901b19161790558151903382526020820152a180f35b634e487b7160e01b855260418652602485fd5b805482101561027a5760005260206000200190600090565b634e487b7160e01b600052603260045260246000fdfea26469706673582212209f42649f44a589561b9f25913e24d72567345ff31e47ebdd58ac01450cf2188464736f6c63430008140033",
  "linkReferences": {},
  "deployedLinkReferences": {}
}