{
  "_format": "hh-sol-artifact-1",
  "contractName": "MockSubnetsPrecompiledPallet",
  "sourceName": "contracts/SubnetsPrecompiledPallet.sol",
  "abi": [
    {
      "anonymous": false,
      "inputs": [
        {
          "indexed": false,
          "internalType": "address",
          "name": "user",
          "type": "address"
        },
        {
          "indexed": false,
          "internalType": "uint256",
          "name": "netuid",
          "type": "uint256"
        }
      ],
      "name": "SubnetPrecompiledPalletBurnedRegister",
      "type": "event"
    },
    {
      "stateMutability": "payable",
      "type": "fallback"
    },
    {
      "inputs": [
        {
          "internalType": "uint16",
          "name": "netuid",
          "type": "uint16"
        },
        {
          "internalType": "bytes32",
          "name": "hotkey",
          "type": "bytes32"
        }
      ],
      "name": "burnedRegister",
      "outputs": [],
      "stateMutability": "payable",
      "type": "function"
    },
    {
      "inputs": [
        {
          "internalType": "uint256",
          "name": "netuid",
          "type": "uint256"
        }
      ],
      "name": "getRegisteredUsers",
      "outputs": [
        {
          "internalType": "bytes32[]",
          "name": "",
          "type": "bytes32[]"
        }
      ],
      "stateMutability": "view",
      "type": "function"
    },
    {
      "inputs": [
        {
          "internalType": "uint256",
          "name": "",
          "type": "uint256"
        },
        {
          "internalType": "uint256",
          "name": "",
          "type": "uint256"
        }
      ],
      "name": "registeredUsers",
      "outputs": [
        {
          "internalType": "bytes32",
          "name": "",
          "type": "bytes32"
        }
      ],
      "stateMutability": "view",
      "type": "function"
    },
    {
      "inputs": [
        {
          "internalType": "uint256",
          "name": "_tempo",
          "type": "uint256"
        }
      ],
      "name": "setTempo",
      "outputs": [],
      "stateMutability": "nonpayable",
      "type": "function"
    },
    {
      "inputs": [],
      "name": "tempo",
      "outputs": [
        {
          "internalType": "uint256",
          "name": "",
          "type": "uint256"
        }
      ],
      "stateMutability": "view",
      "type": "function"
    },
    {
      "stateMutability": "payable",
      "type": "receive"
    }
  ],
  "bytecode": "0x6080806040523461001c57611c206001556103c790816100228239f35b600080fdfe608060408181526004918236101561001f575b505050361561001d57005b005b600092833560e01c9182634054ecca146101b5575081636bc14d88146100e95781638f63dd7c146100cf578163a3db22e014610087575063bb1d592d146100665780610012565b346100835781600319360112610083576020906001549051908152f35b5080fd5b8284346100cc57816003193601126100cc5760243592358152806020528181209081548410156100cc57506020926100be91610363565b91905490519160031b1c8152f35b80fd5b839034610083576020366003190112610083573560015580f35b838334610083576020806003193601126101b1578335835282815281832092825192838386549182815201908196845284842090845b8682821061019d5750505050849003601f01601f191684019567ffffffffffffffff87118588101761018a575085815282865292518583018190528594938501939290915b82811061017357505050500390f35b835185528695509381019392810192600101610164565b634e487b7160e01b835260419052602482fd5b83548552909301926001928301920161011f565b8280fd5b848492836003193601126100835780359261ffff84168094036101b1576024948535858552602092858452828620805480835285830191885285882090885b8782821061034f5750505050819003601f01601f1916810167ffffffffffffffff81118282101761033d578352855b81518110156102b25782858260051b840101511461025e57600019811461024c57600101610223565b634e487b7160e01b8752601186528887fd5b835162461bcd60e51b81528087018690526029818b01527f486f746b657920616c7265616479207265676973746572656420666f722074686044820152681a5cc81cdd589b995d60ba1b6064820152608490fd5b5050858552848352818520805496929488906801000000000000000089101561032c575050866103099160017f5938fc51250888803dcbd7e9fb7f90985cca98aede6a8870e381a79f188274519899018155610363565b819291549060031b91821b91600019901b1916179055825191338352820152a180f35b634e487b7160e01b88526041905286fd5b634e487b7160e01b8752604186528887fd5b8354855290930192600192830192016101f4565b805482101561037b5760005260206000200190600090565b634e487b7160e01b600052603260045260246000fdfea264697066735822122062005503dbf11ae392863189aceb6f2962277fe77a9b40a2a161ff0acd63ef8264736f6c63430008140033",
  "linkReferences": {},
  "deployedLinkReferences": {}
}